:100000000C9430000C9446030C9446030C94460365
:100010000C9446030C9446030C946E020C941C0240
:100020000C9445020C94F3010C94CA010C94A101A8
:100030000C9446030C9446030C9446030C9446031C
:100040000C9446030C9446030C9446030C9446030C
:100050000C9446030060006A000694006A008080E9
:1000600011241FBECFE5D8E0DEBFCDBFE4E5F0E050
:1000700040E017C0B591A59135912591059107FDF7
:100080000CC095918591EF01F92FE82F05900D9205
:10009000A217B307D9F7FE0104C01D92A217B30738
:1000A000E1F7E036F40731F70E94B9020C945800EA
:0400B000F894FFCFF2
:1000B4007F928F929F92AF92BF92CF92DF92EF92F4
:1000C400FF920F931F93CF93DF938C01762EC42F4F
:1000D4006C01092E000CEE08FF08D1E0892B09F011
:1000E400D0E0C114D104E104F104A9F0A701960100
:1000F4000F2EFAE08F2E912CA12CB12CF02DDF5F66
:10010400CA01B901A50194010E94EB022115310530
:1001140041055105A1F74C2F4D1B0AF440E0112372
:1001240054F4F094E094D094C094C11CD11CE11C0C
:10013400F11CC1E001C0C0E07A947A947D0E740E83
:10014400C70DD40F31F18C2F8D1BD82F0F2EFAE051
:100154008F2E912CA12CB12CF02DC43078F40C2FBF
:1001640010E0000F111F06591F4FC701B601A5016A
:1001740094010E94EB02F80171836083C701B60108
:10018400A50194010E94EB0269017A01C150DC13BC
:10019400E4CFDF91CF911F910F91FF90EF90DF900B
:0E01A400CF90BF90AF909F908F907F90089566
:1001B20082EB0E9448030E940203E0917E00F0E07D
:1001C200EE0FFF1FE659FF4F0190F081E02DFF2750
:1001D200E05AFF4F6081609580E390E00E94430304
:1001E20080917F0090E000907E0002C095958795F7
:1001F2000A94E2F780FF05C060E880E390E00E9485
:100202002F0380917E00813061F028F0823079F0F6
:10021200833099F017C061E086E390E00E943503D5
:1002220011C062E086E390E00E9435030BC064E0F7
:1002320086E390E00E94350305C068E086E390E023
:100242000E94350380917E008F5F843018F4809382
:0A0252007E00089510927E000895CA
:10025C000F931F93CF93DF93DC0120E030E070E02D
:10026C00842F8170C82FE0E0DE2F01E010E0FB014D
:10027C00022E02C0F595E7950A94E2F7E0FF1FC045
:10028C0011969C911197FE01022E02C0EE0FFF1FDA
:10029C000A94E2F7E92B1196EC931197423079F41A
:1002AC0012965C911297F801022E02C0EE0FFF1FFE
:1002BC000A94E2F7CF01852B12968C9312972F5F3D
:1002CC003F4F2830310599F6DF91CF911F910F9157
:0202DC00089583
:1002DE0041E06FEF80E390E00E942E0141E061E08B
:1002EE0086E390E00E942E0141E062E086E390E01A
:1002FE000E942E0141E064E086E390E00E942E0110
:10030E0041E068E086E390E00E942E0141E061E06A
:10031E0089E390E00E942E0165E080E00E94D40205
:10032E0082EB0E9448030E943F0389ED90E00E94F9
:04033E003A030895E1
:100342001F920F920FB60F9211242F933F934F9348
:100352005F936F937F938F939F93AF93BF93EF932B
:10036200FF93E0917C00F0917D00309709F00995B0
:10037200FF91EF91BF91AF919F918F917F916F917B
:100382005F914F913F912F910F900FBE0F901F9051
:020392001895BC
:100394001F920F920FB60F9211242F933F934F93F6
:1003A4005F936F937F938F939F93AF93BF93EF93D9
:1003B400FF93E0917A00F0917B00309709F0099562
:1003C400FF91EF91BF91AF919F918F917F916F9129
:1003D4005F914F913F912F910F900FBE0F901F90FF
:0203E40018956A
:1003E6001F920F920FB60F9211242F933F934F93A4
:1003F6005F936F937F938F939F93AF93BF93EF9387
:10040600FF93E0917800F0917900309709F0099513
:10041600FF91EF91BF91AF919F918F917F916F91D6
:100426005F914F913F912F910F900FBE0F901F90AC
:02043600189517
:100438001F920F920FB60F9211242F933F934F9351
:100448005F936F937F938F939F93AF93BF93EF9334
:10045800FF93E0917600F0917700309709F00995C5
:10046800FF91EF91BF91AF919F918F917F916F9184
:100478005F914F913F912F910F900FBE0F901F905A
:020488001895C5
:10048A001F920F920FB60F9211242F933F934F93FF
:10049A005F936F937F938F939F93AF93BF93EF93E2
:1004AA00FF93E0917400F0917500309709F0099577
:1004BA00FF91EF91BF91AF919F918F917F916F9132
:1004CA005F914F913F912F910F900FBE0F901F9008
:0204DA00189573
:1004DC001F920F920FB60F9211242F933F934F93AD
:1004EC005F936F937F938F939F93AF93BF93EF9390
:1004FC00FF93E0917200F0917300309709F0099529
:10050C00FF91EF91BF91AF919F918F917F916F91DF
:10051C005F914F913F912F910F900FBE0F901F90B5
:02052C00189520
:10052E00A1E21A2EAA1BBB1BFD010DC0AA1FBB1FE9
:10053E00EE1FFF1FA217B307E407F50720F0A21B5B
:10054E00B30BE40BF50B661F771F881F991F1A94C8
:10055E0069F760957095809590959B01AC01BD01F2
:04056E00CF0108951C
:100572000E946F017894C0E0D0E042E063E0CE01D7
:100582000E945A0082E00E9417032FEF89E698E149
:10059200215080409040E1F700C000002196C4360F
:0605A200D10559F7E8CF76
:1005A800813049F028F0823051F0833061F00895AD
:1005B800677063BF08956770606663BF089567706A
:0E05C800686263BF08956770686663BF089538
:1005D600052E97FB1EF400940E94270357FD07D0B3
:1005E6000E94970207FC03D04EF40C942703509503
:0E05F6004095309521953F4F4F4F5F4F089530
:1006040061E086E390E00E942F0362E086E390E0DD
:100614000E942F0364E086E390E00E942F0368E0C9
:0A06240086E390E00E942F03089582
:10062E0040917F00815021E030E0B90102C0660F99
:10063E00771F8A95E2F7CB01842780937F00089578
:10064E0090958095709561957F4F8F4F9F4F089530
:0C065E00FC01928160956923628308957D
:0A066A00FC012281622B62830895D7
:0A06740090937D0080937C000895B0
:08067E0089B7816089BF08956E
:06068600FC0162830895EF
:04068C000C940000CA
:0406900082BF089588
:0A0694003F305B4F666D7D077F6FFE
:00000001FF
